:020000040800F2
:100000007808002089010008E5010008E5010008E2
:10001000E5010008E5010008E50100080000000016
:10002000000000000000000000000000E5010008E2
:10003000E501000800000000E5010008E5010008F6
:10004000E5010008E5010008E5010008E5010008F8
:10005000E5010008E5010008E5010008E5010008E8
:10006000E5010008E5010008E5010008E5010008D8
:10007000E5010008E5010008E5010008E5010008C8
:10008000E5010008E5010008E5010008E5010008B8
:10009000E5010008E5010008E5010008E5010008A8
:1000A000E5010008E5010008E5010008E501000898
:1000B000E501000885040008C1050008E501000805
:1000C000E5010008E5010008E5010008E501000878
:1000D000E5010008E5010008E5010008E501000868
:1000E000E5010008E5010008E5010008E501000858
:1000F000E5010008E5010008E5010008E501000848
:10010000E5010008E5010008E5010008E501000837
:10011000E5010008E5010008E5010008E501000827
:10012000E5010008E5010008E5010008E501000817
:10013000E5010008E5010008E5010008E501000807
:10014000E5010008E5010008E5010008E5010008F7
:10015000E5010008E5010008E5010008E5010008E7
:10016000E5010008E5010008E5010008E5010008D7
:10017000E5010008E5010008E5010008E5010008C7
:10018000E5010008E501000880B582B000AF104B22
:100190007B60104B3B6007E03B681A1D3A607A6851
:1001A000111D796012681A603A680B4B9A42F3D3BA
:1001B0000A480B494FF000028842B8BF40F8042BB0
:1001C000FFF6FAAF00F06EFB0837BD4680BD00BFFA
:1001D000741A0008000000201C0000201C000020F1
:1001E0007400002080B400AFFEE700BF80B584B08B
:1001F00000AFF860B9607A603B601648402100F0BB
:10020000EDFC154840F2011100F0E8FC1348042110
:1002100000F0E4FCFB68012B03D10E48402100F004
:10022000CFFCBB68012B03D10B48012100F0C8FCB7
:100230007B68012B03D10948042100F0C1FC3B6815
:10024000012B04D104484FF4807100F0B9FC103741
:10025000BD4680BD00000240000402400010024084
:1002600080B500AF0020012100220123FFF7BEFF6F
:1002700080BD00BF80B500AF012000210122002316
:10028000FFF7B4FF80BD00BF80B500AF01200021A3
:1002900000220123FFF7AAFF80BD00BF80B500AF99
:1002A0000020012101220023FFF7A0FF80BD00BF35
:1002B00080B586B000AF0120012100F09DFB4023F6
:1002C0003B610023BB7501233B750023FB750323B2
:1002D0007B7507F110031748194600F0C9FB02208F
:1002E000012100F089FB40F20113BB600023BB73C6
:1002F00001233B730023FB7303237B7307F1080384
:100300000D48194600F0B4FB1020012100F074FBE9
:1003100004233B600023BB7101233B710023FB716D
:1003200003237B713B460548194600F0A1FB1837B3
:10033000BD4680BD000002400004024000100240A3
:1003400080B586B000AF0820012100F055FB1020D9
:10035000012100F051FB0120012100F04DFB4FF481
:1003600070433B6101233B750023BB7503237B7501
:100370000023FB7507F110033E48194600F078FB97
:100380000120012100F038FB01233B6100233B7574
:1003900002237B750023BB750223FB7507F1100355
:1003A0003548194600F064FB00F026FC00F050FCD4
:1003B0000420012100F03EFB0B23BB600623BB8021
:1003C0000023BB810023FB803B1D2C48194600F015
:1003D00093FD2A48012100F0F9FD0220012100F0DF
:1003E00029FB40F6B833BB6042F60413BB80002300
:1003F000BB810023FB803B1D2148194600F07CFD9A
:100400001F48012100F0E2FD0220012100F012FB53
:100410000420012100F00EFB1E233B7000237B70A3
:100420000023BB700123FB703B46184600F006FD1D
:100430001248012100F038FE10480121012200F08D
:10044000E5FD1D233B7000237B700023BB7001235F
:10045000FB703B46184600F0F1FC0948012100F012
:1004600023FE07480121012200F0D0FD1837BD46C8
:1004700080BD00BF000C02400000024000080040A8
:100480000004004080B500AF4948012100F0E2FDC2
:100490000346002B00F08B804548012100F004FE4C
:1004A000444B1B68142B61DD424B1B68642B0ADC38
:1004B0000020002100220023FFF798FE3D4B1B681F
:1004C0005A1C3C4B1A603B4B1B68682B0ADC394BAF
:1004D0001B68642B06DDFFF7E1FE364B1B685A1CD8
:1004E000344B1A60334B1B68682B0ADD314B1B6899
:1004F0006C2B06DCFFF7C8FE2E4B1B685A1C2D4BDD
:100500001A602C4B1B686C2B0ADD2A4B1B68702B66
:1005100006DCFFF7AFFE274B1B685A1C254B1A6001
:10052000244B1B68702B0ADD224B1B68742B06DCE6
:10053000FFF796FE1F4B1B685A1C1E4B1A601D4B83
:100540001B68742B0ADD1B4B1B68782B06DCFFF73E
:1005500091FE184B1B685A1C164B1A60154B1B68F2
:10056000792B24D1134B00221A6020E0114B1B6819
:10057000022B17DC104B1B68184601F017F80246D7
:100580000E4B1B681046194601F020FA0346002B5B
:1005900002D0FFF779FE01E0FFF76CFE054B002269
:1005A0001A6004E0034B1B685A1C024B1A6080BDA2
:1005B0000004004004000020000000207000002023
:1005C00080B500AF0A48012100F044FD0346002B2E
:1005D0000DD00748012100F067FD064B1B685A1C2F
:1005E000044B1A60044B1B685A1C034B1A6080BDF5
:1005F000000800401C0000202000002080B483B0D0
:1006000000AF7860064B00221A6000BF044B1A68E6
:100610007B689A42FADD0C37BD465DF8047B704773
:100620002000002080B584B000AF0820012100F038
:10063000E3F94FF48043BB600023BB7301233B739A
:100640000023FB7303237B7307F108030B48194650
:1006500000F00EFA4FF480633B6000233B710023EF
:10066000BB710223FB7102237B713B460348194691
:1006700000F0FEF91037BD4680BD00BF000C0240FF
:1006800080B586B000AF00237B6139484FF48041CC
:1006900000F0A4FA0520FFF7B1FF35484FF4804180
:1006A00000F08EFA0D20FFF7A9FF314844F20A014D
:1006B00000F094FA2F4B3B6106E03B695A1E3A6109
:1006C000002B01D12C4B4FE029484FF4806100F002
:1006D0005DFA0346002BF0D00023FB600123BB60D2
:1006E00000237B60254B00221A60254B00221A60F4
:1006F00015E07B6901337B61FB680133FB601C48BB
:100700004FF4806100F042FA0346002B02D17B686F
:1007100001337B607B680E2B01DD0023BB60BB686F
:10072000002BE6D1154B1B68B3F5167F04DD134B88
:100730001B68184600F028F800F048F802461346F7
:100740001B0113445B00184600F030FF03461846B7
:100750000C4901F033F8034618464FF0804101F090
:100760002DF803463B603B6818461837BD4680BDF0
:10077000000C024040420F00000080BF1C0000201F
:100780002000002000007A4480B485B000AF78607B
:100790001123FB600BE0FB685A1C0B4BF96853F804
:1007A0002110094B43F82210FB68013BFB60FB68FA
:1007B000B3F1FF3FEFD1044B7A681A601437BD469E
:1007C0005DF8047B704700BF2400002080B598B01E
:1007D00000AF0023FB653A464C23104600211A4621
:1007E00001F0FEF80DE02E4BFA6D53F82220FB6D60
:1007F0009B0007F160010B4443F8602CFB6D013353
:10080000FB65FB6D132BEED10023BB6500237B65DD
:100810003DE07B6DBB657B6D3B6514E0BB6D9B0074
:1008200007F16002134453F8602C3B6D9B0007F105
:1008300060010B4453F8603C9A4201DABB6D3B65A2
:10084000BB6D0133BB65BB6D132BE7D17B6D9B008B
:1008500007F16002134453F8603CFB643B6D9B005E
:1008600007F160010B4453F8602C7B6D9B0007F18E
:1008700060010B4443F8602C3B6D9B0007F1600264
:100880001344FA6C43F8602C7B6D01337B657B6D00
:10089000122BBED17B6A18466037BD4680BD00BFB3
:1008A0002400002080B500AF00F0A6F9FFF748FD56
:1008B000FFF7B8FEFFF7FCFC084B1B68184600F07A
:1008C00067FD02460B461046194600F02BF8FFF76D
:1008D000D7FE0246014B1A60EEE700BF7000002011
:1008E00080B582B000AF78607B68012B09D0032B04
:1008F0000DD0002B11D10A484FF4805100F06EF951
:100900000BE007484FF4005100F068F905E0044897
:100910004FF4004100F062F900BF0837BD4680BDCA
:10092000000C024080B582B000AF78607B681D2B60
:1009300001DC00F04FF87B681E2B04DD00F04AF864
:10094000012000F013F87B68322B07DD00F042F83D
:10095000012000F00BF8022000F008F87B68782BEB
:1009600001DD00F025F80837BD4680BD80B582B0B6
:1009700000AF78607B68012B09D0022B0DD0002BD3
:1009800011D10A484FF4805100F01AF90BE00748E2
:100990004FF4005100F014F905E004484FF4004111
:1009A00000F00EF900BF0837BD4680BD000C0240C4
:1009B00080B582B000AF00237B6005E07868FFF768
:1009C000D5FF7B6801337B607B68022BF6DD08373F
:1009D000BD4680BD80B582B000AF00237B6005E0DE
:1009E0007868FFF77DFF7B6801337B607B68022BB3
:1009F000F6DD0837BD4680BD80B483B000AF7860B7
:100A00000B46FB70FB78002B06D0094B084A116B94
:100A10007A680A431A6306E0054B054A116B7A6847
:100A2000D2430A401A630C37BD465DF8047B704719
:100A30000038024080B483B000AF78600B46FB7092
:100A4000FB78002B06D0094B084A116C7A680A43E0
:100A50001A6406E0054B054A116C7A68D2430A40D5
:100A60001A640C37BD465DF8047B704700380240BD
:100A700080B487B000AF7860396000237B610023C9
:100A80003B610023FB6000237B6176E07B690122F0
:100A900002FA03F33B613B681A683B691340FB6051
:100AA000FA683B699A4265D17B681A687B695B008A
:100AB000032101FA03F3DB431A407B681A607B6869
:100AC0001A683B681B7919467B695B0001FA03F3DE
:100AD0001A437B681A603B681B79012B03D03B6883
:100AE0001B79022B2ED17B689A687B695B000321FE
:100AF00001FA03F3DB431A407B689A607B689A68CB
:100B00003B685B7919467B695B0001FA03F31A4382
:100B10007B689A607B685A687B699BB2012101FA05
:100B200003F3DB431A407B685A607B685A683B6872
:100B30009B7919467B699BB201FA03F39BB21A4376
:100B40007B685A607B68DA687B699BB25B00032133
:100B500001FA03F3DB431A407B68DA607B68DA68EA
:100B60003B68DB7919467B695B0001FA03F31A43A2
:100B70007B68DA607B6901337B617B690F2B85D9E8
:100B80001C37BD465DF8047B704700BF80B485B05C
:100B900000AF78600B467B800023FB737B681A698B
:100BA0007B881340002B02D00123FB7301E000235C
:100BB000FB73FB7B18461437BD465DF8047B70471A
:100BC00080B483B000AF78600B467B807B687A8806
:100BD0001A830C37BD465DF8047B704780B483B040
:100BE00000AF78600B467B807B687A885A830C372D
:100BF000BD465DF8047B704780B500AF114B114ACC
:100C0000126842F001021A600E4B00229A600D4AEF
:100C10000C4B1B6823F0847323F480331360094B5F
:100C2000094A5A60074B074A126822F480221A6068
:100C3000044B0022DA6000F087F8044B4FF00062AA
:100C40009A6080BD003802401030002400ED00E0C2
:100C500080B487B000AF00233B6100237B61022397
:100C6000FB600023BB6002237B60324B9B6803F078
:100C70000C033B613B69042B07D0082B09D0002BE8
:100C80003FD12D4B2D4A1A603FE02B4B2C4A1A6066
:100C90003BE0284B5B6803F480039B0DBB60254B56
:100CA0005B6803F03F037B60BB68002B0DD0244AD8
:100CB0007B68B2FBF3F21F4B596847F6C0730B40D9
:100CC0009B0903FB02F37B610CE01C4A7B68B2FBCF
:100CD000F3F2184B596847F6C0730B409B0903FBAE
:100CE00002F37B61134B5B6803F440331B0C01334D
:100CF0005B00FB607A69FB68B2FBF3F20E4B1A6093
:100D000003E00D4B0D4A1A6000BF0A4B9B6803F0CD
:100D1000F0031B090B4AD35CDBB23B61064B1A683C
:100D20003B69DA40044B1A601C37BD465DF8047B12
:100D3000704700BF00380240080000200024F40083
:100D400000127A000C00002080B483B000AF0023B2
:100D50007B6000233B60354B344A126842F480329A
:100D60001A60324B1B6803F400333B607B6801332D
:100D70007B603B68002B03D17B68B3F5A06FF0D19B
:100D80002A4B1B6803F40033002B02D001233B6085
:100D900001E000233B603B68012B42D1234B234AF7
:100DA000126C42F080521A64214B214A126842F4BC
:100DB00080421A601D4B1D4A92689A601B4B1B4A69
:100DC000926842F400429A60184B184A926842F4C2
:100DD000A0529A60154B174A5A60144B134A126876
:100DE00042F080721A6000BF104B1B6803F0007362
:100DF000002BF9D0104B40F205621A600B4B0B4AE6
:100E0000926822F003029A60084B084A926842F006
:100E100002029A6000BF054B9B6803F00C03082B8D
:100E2000F9D10C37BD465DF8047B704700380240AD
:100E30000070004008544007003C024080B485B078
:100E400000AF78600023FB730023BB730F237B7319
:100E50007B68DB78002B37D0254BDB68DB4303F462
:100E6000E0631B0AFB73FB7BC3F10403BB737A7B58
:100E7000FB7B42FA03F37B737B685B781A46BB7B90
:100E800002FA03F3FB737B689A787B7B1340DAB238
:100E9000FB7B1343FB73FB7B1B01FB73154A7B68D6
:100EA0001B781344FA7B83F80023124B7A6812787C
:100EB0005209D2B27968097801F01F01012000FAC5
:100EC00001F143F822100EE00A4B7A6812785209B9
:100ED000D2B27968097801F01F01012000FA01F10E
:100EE000203243F822101437BD465DF8047B70476A
:100EF00000ED00E000E100E080B485B000AF786074
:100F000039600023FB817B681B88FB817A68284B52
:100F10009A4213D07A68274B9A420FD07B68B3F17C
:100F2000804F0BD07A68244B9A4207D07A68234BC3
:100F30009A4203D07A68224B9A4208D1FB8923F067
:100F40007003FB813B685A88FB891343FB817A68F5
:100F50001C4B9A420CD07A681B4B9A4208D0FB89F2
:100F600023F44073FB813B681A89FB891343FB819F
:100F70007B68FA891A803B685A687B68DA623B684A
:100F80001A887B681A857A68094B9A4203D07A6876
:100F9000084B9A4204D13B689B7A1A467B681A86B2
:100FA0007B6801229A821437BD465DF8047B704746
:100FB000000001400004014000040040000800401F
:100FC000000C0040001000400014004080B483B0CA
:100FD00000AF78600B46FB70FB78002B08D07B6875
:100FE0001B889BB243F001039AB27B681A8007E02A
:100FF0007B681B889BB223F001039AB27B681A803E
:101000000C37BD465DF8047B704700BF80B483B0E9
:1010100000AF786013460A467A807B707B78002B9D
:1010200008D07B689B899AB27B8813439AB27B680D
:101030009A8109E07B689B899AB27B88DB439BB2EB
:1010400013409AB27B689A810C37BD465DF8047BE9
:10105000704700BF80B485B000AF78600B467B80DE
:101060000023FB730023BB8100237B817B681B8AE9
:101070009AB27B881340BB817B689B899AB27B883C
:1010800013407B81BB89002B05D07B89002B02D0CC
:101090000123FB7301E00023FB73FB7B184614372D
:1010A000BD465DF8047B704780B483B000AF7860C4
:1010B0000B467B807B88DB439AB27B681A820C37B5
:1010C000BD465DF8047B704781F0004102E000BF3F
:1010D00083F0004330B54FEA41044FEA430594EAF8
:1010E000050F08BF90EA020F1FBF54EA000C55EA33
:1010F000020C7FEA645C7FEA655C00F0E2804FEA04
:101100005454D4EB5555B8BF6D420CDD2C4480EAE5
:10111000020281EA030382EA000083EA010180EA15
:10112000020281EA0303362D88BF30BD11F0004F63
:101130004FEA01314FF4801C4CEA113102D0404299
:1011400061EB410113F0004F4FEA03334CEA1333D4
:1011500002D0524263EB430394EA050F00F0A780EC
:10116000A4F10104D5F1200E0DDB02FA0EFC22FAE7
:1011700005F2801841F1000103FA0EF2801843FADB
:1011800005F359410EE0A5F120050EF1200E012ACC
:1011900003FA0EFC28BF4CF0020C43FA05F3C0180A
:1011A00051EBE37101F0004507D54FF0000EDCF183
:1011B000000C7EEB00006EEB0101B1F5801F1BD32C
:1011C000B1F5001F0CD349085FEA30004FEA3C0C30
:1011D00004F101044FEA445212F5800F80F09A8026
:1011E000BCF1004F08BF5FEA500C50F1000041EB2A
:1011F000045141EA050130BD5FEA4C0C404141EB2E
:10120000010111F4801FA4F10104E9D191F0000F54
:1012100004BF01460020B1FA81F308BF2033A3F1D7
:101220000B03B3F120020CDA0C3208DD02F1140CCE
:10123000C2F10C0201FA0CF021FA02F10CE002F109
:101240001402D8BFC2F1200C01FA02F120FA0CFC02
:10125000DCBF41EA0C019040E41AA2BF01EB04514B
:10126000294330BD6FEA04041F3C1CDA0C340EDC49
:1012700004F11404C4F1200220FA04F001FA02F38C
:1012800040EA030021FA04F345EA030130BDC4F14A
:101290000C04C4F1200220FA02F001FA04F340EA3F
:1012A0000300294630BD21FA04F0294630BD94F0F0
:1012B000000F83F4801306BF81F480110134013DD7
:1012C0004EE77FEA645C18BF7FEA655C29D094EA48
:1012D000050F08BF90EA020F05D054EA000C04BFC6
:1012E0001946104630BD91EA030F1EBF00210020B1
:1012F00030BD5FEA545C05D14000494128BF41F050
:10130000004130BD14F580043CBF01F5801130BDB3
:1013100001F0004545F0FE4141F470014FF000003E
:1013200030BD7FEA645C1ABF194610467FEA655CEF
:101330001CBF0B46024650EA013406BF52EA033591
:1013400091EA030F41F4002130BD00BF90F0000F7F
:1013500004BF0021704730B54FF4806404F13204BB
:101360004FF000054FF0000150E700BF90F0000F74
:1013700004BF0021704730B54FF4806404F132049B
:1013800010F0004548BF40424FF000013EE700BF6B
:1013900042004FEAE2014FEA31014FEA02701FBFFB
:1013A00012F07F4393F07F4F81F06051704792F0CD
:1013B000000F14BF93F07F4F704730B54FF4607447
:1013C00001F0004521F0004120E700BF50EA010292
:1013D00008BF704730B54FF000050AE050EA01023F
:1013E00008BF704730B511F0004502D5404261EBAF
:1013F00041014FF4806404F132045FEA915C3FF4F0
:10140000DCAE4FF003025FEADC0C18BF03325FEA88
:10141000DC0C18BF033202EBDC02C2F1200300FA3D
:1014200003FC20FA02F001FA03FE40EA0E0021FA62
:1014300002F11444C1E600BF80F0004002E000BFAA
:1014400081F0004142001FBF5FEA410392EA030FAF
:101450007FEA226C7FEA236C6AD04FEA1262D2EBF9
:101460001363C1BFD218414048404140B8BF5B42FE
:10147000192B88BF704710F0004F40F4000020F097
:101480007F4018BF404211F0004F41F4000121F0AD
:101490007F4118BF494292EA030F3FD0A2F10102F7
:1014A00041FA03FC10EB0C00C3F1200301FA03F135
:1014B00000F0004302D5494260EB4000B0F5000F58
:1014C00013D3B0F1807F06D340084FEA310102F117
:1014D0000102FE2A51D2B1F1004F40EBC25008BFC9
:1014E00020F0010040EA03007047490040EB000093
:1014F00010F4000FA2F10102EDD1B0FA80FCACF1C2
:10150000080CB2EB0C0200FA0CF0AABF00EBC250C0
:1015100052421843BCBFD0401843704792F0000FAE
:1015200081F4000106BF80F400000132013BB5E701
:101530004FEA41037FEA226C18BF7FEA236C21D077
:1015400092EA030F04D092F0000F08BF08467047DC
:1015500090EA010F1CBF0020704712F07F4F04D1AA
:10156000400028BF40F00040704712F100723CBFBD
:1015700000F50000704700F0004343F0FE4040F4E7
:10158000000070477FEA226216BF08467FEA2363A5
:101590000146420206BF5FEA412390EA010F40F490
:1015A000800070474FF0000304E000BF10F00043DC
:1015B00048BF40425FEA000C08BF704743F09643C3
:1015C00001464FF000001CE050EA010208BF7047DE
:1015D0004FF000030AE000BF50EA010208BF704765
:1015E00011F0004302D5404261EB41015FEA010C7A
:1015F00002BF84460146002043F0B64308BFA3F172
:101600008053A3F50003BCFA8CF2083AA3EBC25353
:1016100010DB01FA02FC634400FA02FCC2F1200272
:10162000BCF1004F20FA02F243EB020008BF20F0A9
:101630000100704702F1200201FA02FCC2F120020F
:1016400050EA4C0021FA02F243EB020008BF20EA04
:10165000DC7070474FF0FF0C1CEAD0521EBF1CEA32
:10166000D15392EA0C0F93EA0C0F6FD01A4480EA20
:10167000010C400218BF5FEA41211ED04FF0006309
:1016800043EA501043EA5111A0FB01310CF0004035
:10169000B1F5000F3EBF490041EAD3715B0040EA5B
:1016A000010062F17F02FD2A1DD8B3F1004F40EB2B
:1016B000C25008BF20F00100704790F0000F0CF0FE
:1016C000004C08BF49024CEA502040EA51207F3AC2
:1016D000C2BFD2F1FF0340EAC250704740F400009D
:1016E0004FF00003013A5DDC12F1190FDCBF00F08E
:1016F00000407047C2F10002410021FA02F1C2F13C
:10170000200200FA02FC5FEA310040F1000053EAD7
:101710004C0308BF20EADC70704792F0000F00F025
:10172000004C02BF400010F4000F013AF9D040EA2B
:101730000C0093F0000F01F0004C02BF490011F4BF
:10174000000F013BF9D041EA0C018FE70CEAD153BD
:1017500092EA0C0F18BF93EA0C0F0AD030F0004C3D
:1017600018BF31F0004CD8D180EA010000F00040F1
:10177000704790F0000F17BF90F0004F084691F0AF
:10178000000F91F0004F14D092EA0C0F01D14202E9
:101790000FD193EA0C0F03D14B0218BF084608D1B2
:1017A00080EA010000F0004040F0FE4040F40000FC
:1017B000704740F0FE4040F4400070474FF0FF0C8F
:1017C0001CEAD0521EBF1CEAD15392EA0C0F93EAD6
:1017D0000C0F69D0A2EB030280EA010C49024FEA28
:1017E000402037D04FF0805343EA111143EA1013E1
:1017F0000CF000408B4238BF5B0042F17D024FF499
:10180000000C8B4224BF5B1A40EA0C00B3EB510F73
:1018100024BFA3EB510340EA5C00B3EB910F24BF5C
:10182000A3EB910340EA9C00B3EBD10F24BFA3EBE1
:10183000D10340EADC001B0118BF5FEA1C1CE0D1A9
:10184000FD2A3FF650AF8B4240EBC25008BF20F05C
:10185000010070470CF0004C4CEA50207F32C2BFB0
:10186000D2F1FF0340EAC250704740F400004FF04D
:101870000003013A37E792F0000F00F0004C02BF7E
:10188000400010F4000F013AF9D040EA0C0093F048
:10189000000F01F0004C02BF490011F4000F013BA2
:1018A000F9D041EA0C0195E70CEAD15392EA0C0F0A
:1018B00008D142027FF47DAF93EA0C0F7FF470AF42
:1018C000084676E793EA0C0F04D14B023FF44CAF85
:1018D00008466EE730F0004C18BF31F0004CCAD11A
:1018E00030F000427FF45CAF31F000437FF43CAF56
:1018F0005FE700BF4FF0FF3C06E000BF4FF0010C78
:1019000002E000BF4FF0010C4DF804CD4FEA400259
:101910004FEA41037FEA226C18BF7FEA236C11D0A3
:1019200001B052EA530C18BF90EA010F58BFB2EB56
:10193000030088BFC81738BF6FEAE17018BF40F0D6
:10194000010070477FEA226C02D15FEA402C05D18A
:101950007FEA236CE4D15FEA412CE1D05DF8040B0F
:10196000704700BF844608466146FFE70FB5FFF7A2
:10197000C9FF002848BF10F1000F0FBD4DF808ED5A
:10198000FFF7F4FF0CBF012000205DF808FB00BF4B
:101990004DF808EDFFF7EAFF34BF012000205DF8A5
:1019A00008FB00BF4DF808EDFFF7E0FF94BF0120F2
:1019B00000205DF808FB00BF4DF808EDFFF7D2FFEF
:1019C00094BF012000205DF808FB00BF4DF808ED32
:1019D000FFF7C8FF34BF012000205DF808FB00BFFF
:1019E000F0B4840743D0541E002A3ED0CDB2034643
:1019F00003E0621E002C38D0144603F8015B9A07FE
:101A0000F7D1032C2AD9CDB245EA05250F2C45EA9A
:101A1000054515D9A4F110073F0903F1100606EB9F
:101A200007161A46156055609560D5601032B242AF
:101A3000F8D104F00F040137032C03EB07130DD981
:101A40001E462246043A032A46F8045BFAD8221FAF
:101A500022F003020432134404F003042CB1C9B28F
:101A60001C4403F8011BA342FBD1F0BC7047144691
:041A70000346C6E77C
:101A74002D00000050000000007A030A000000005E
:0C1A84000000000001020304060708092E
:0400000508000000EF
:00000001FF
