:020000040800F2
:100000001008002089010008E1010008E101000852
:10001000E1010008E1010008E10100080000000022
:10002000000000000000000000000000E1010008E6
:10003000E101000800000000E1010008E101000802
:10004000E1010008E1010008E1010008E101000808
:10005000E1010008E1010008E1010008E1010008F8
:10006000E1010008E1010008E1010008E1010008E8
:10007000E1010008E1010008E1010008E1010008D8
:10008000E1010008E1010008E1010008E1010008C8
:10009000E1010008E1010008E1010008E1010008B8
:1000A000E1010008E1010008E1010008E1010008A8
:1000B000E1010008E1010008E1010008E101000898
:1000C000E1010008E1010008E1010008E101000888
:1000D000E1010008E1010008E1010008E101000878
:1000E000E1010008E1010008E1010008E101000868
:1000F000E1010008E1010008E1010008E101000858
:10010000E1010008E1010008E1010008E101000847
:10011000E1010008E1010008E1010008E101000837
:10012000E1010008E1010008E1010008E101000827
:10013000E1010008E1010008E1010008E101000817
:10014000E1010008E1010008E1010008E101000807
:10015000E1010008E1010008E1010008E1010008F7
:10016000E1010008E1010008E1010008E1010008E7
:10017000E1010008E1010008E1010008E1010008D7
:10018000E1010008E101000880B582B000AF0F4B2B
:100190007B600F4B3B6007E03B681A1D3A607A6852
:1001A000111D796012681A603B680A4A9342F3D3C2
:1001B00009480A494FF000028842B8BF40F8042BB2
:1001C000FADB00F055F80837BD4680BDD82C000892
:1001D000000000201000002010000020100000206F
:1001E00080B400AFFEE700BF80B584B000AFF86018
:1001F000B9607A603B601648402100F02DFA15483E
:1002000040F2011100F028FA1348042100F024FA0A
:10021000FB68002B03D00E48402100F00FFABB68AA
:10022000002B03D00B48012100F008FA7B68002B5B
:1002300003D00948042100F001FA3B68002B04D0E8
:1002400004484FF4807100F0F9F91037BD4680BDC5
:1002500000000240000402400010024080B500AFE0
:100260000020012100220123FFF7BEFF80BD00BF57
:1002700080B58CB000AF00F0FDF907F11C033F48DA
:1002800019464FF000023E4B00F09AFA07F11C03AA
:1002900018460021002200F01FFB07F11C0337481D
:1002A00019464FF00002364B00F08AFA07F11C03A2
:1002B00018460121012200F00FFB0120012100F06E
:1002C00011F940237B610023BB7601233B76002399
:1002D000FB7603237B7607F114032A48194600F0C6
:1002E0001FF90220012100F0FDF840F20113FB602C
:1002F0000023BB7401233B740023FB7403237B7432
:1003000007F10C032048194600F00AF910200121DA
:1003100000F0E8F804237B600023BB7201233B72EA
:100320000023FB7203237B723B1D1848194600F023
:10033000F7F81448402100F081F91348012100F03A
:100340008BF907F11C03184600214FF47A7200F074
:10035000EBFB0E48042100F071F90B484FF480715B
:1003600000F07AF907F11C03184601214FF47A7264
:1003700000F0DAFBFFF772FFFCE700BF004001402E
:1003800000408F4000000240000402400010024084
:1003900080B489B000AF78600023BB6100237B612B
:1003A0000023FB6102233B610023FB600223BB604F
:1003B000484B9B6803F00C03BB61BB69042B07D05F
:1003C000082B09D0002B3FD17B68434A1A603FE0DD
:1003D0007B68424A1A603BE03E4B5B6803F4800353
:1003E0009B0DFB603B4B5B6803F03F03BB60FB680E
:1003F000002B0DD0394ABB68B2FBF3F2354B59687C
:1004000047F6C0730B409B0903FB02F3FB610CE052
:10041000314ABB68B2FBF3F22E4B596847F6C07302
:100420000B409B0903FB02F3FB612A4B5B6803F45F
:1004300040331B0C01335B003B61FA693B69B2FB43
:10044000F3F27B681A6003E07B68234A1A6000BFFE
:10045000204B9B6803F0F003BB61BB691B09BB61C8
:100460001F4ABB6913441B78DBB27B617B681A6847
:100470007B69DA407B685A60164B9B6803F4E05353
:10048000BB61BB699B0ABB61154ABB6913441B78FE
:10049000DBB27B617B685A687B69DA407B689A6073
:1004A0000C4B9B6803F46043BB61BB695B0BBB6196
:1004B0000B4ABB6913441B78DBB27B617B685A68CB
:1004C0007B69DA407B68DA602437BD465DF8047BDF
:1004D000704700BF003802400024F40040787D01DE
:1004E0000000002080B483B000AF78600B46FB7042
:1004F000FB78002B06D00949084B1A6B7B68134325
:100500000B6306E00549054B1A6B7B68DB43134020
:100510000B630C37BD465DF8047B70470038024022
:1005200080B487B000AF7860396000237B6100231E
:100530003B610023FB6000237B6176E07B69012245
:1005400002FA03F33B613B681A683B691340FB60A6
:10055000FA683B699A4265D17B681A687B695B00DF
:10056000194603238B40DB431A407B681A607B6883
:100570001A683B681B7919467B695B0001FA03F333
:100580001A437B681A603B681B79012B03D03B68D8
:100590001B79022B2ED17B689A687B695B00194618
:1005A00003238B40DB431A407B689A607B689A6820
:1005B0003B685B7919467B695B0001FA03F31A43D8
:1005C0007B689A607B685A687B699BB219460123F5
:1005D0008B40DB431A407B685A607B685B683A68F3
:1005E000927911467A6992B201FA02F292B21A43F2
:1005F0007B685A607B68DA687B699BB25B00032189
:1006000001FA03F3DB431A407B68DA607B68DA683F
:100610003B68DB7919467B695B0001FA03F31A43F7
:100620007B68DA607B6901337B617B690F2B85D93D
:100630001C37BD465DF8047B704700BF80B483B0B3
:1006400000AF78600B467B807B687A881A830C3712
:10065000BD465DF8047B704780B483B000AF78601E
:100660000B467B807B687A885A830C37BD465DF8E1
:10067000047B704780B500AF114A114B1B6843F0F3
:10068000010313600E4B00229A600D4A0C4B1B684D
:1006900023F0847323F480331360094B094A5A60B2
:1006A000074A074B1B6823F480231360044B002286
:1006B000DA6000F00BF8044B4FF000629A6080BDE6
:1006C000003802401030002400ED00E080B483B018
:1006D00000AF00237B6000233B60354A344B1B682E
:1006E00043F480331360324B1B6803F400333B60E8
:1006F0007B6801337B603B68002B03D17B68B3F5DB
:10070000A06FF0D12A4B1B6803F40033002B02D0FA
:1007100001233B6001E000233B603B68012B42D199
:10072000234A234B1B6C43F080531364214A214B13
:100730001B6843F4804313601D4A1D4B9B68936004
:100740001B4A1B4B9B6843F400439360184A184BA9
:100750009B6843F4A0539360154B174A5A60144AA0
:10076000134B1B6843F08073136000BF104B1B6872
:1007700003F00073002BF9D0104B40F205621A60B1
:100780000B4A0B4B9B6823F003039360084A084B0A
:100790009B6843F00203936000BF054B9B6803F026
:1007A0000C03082BF9D10C37BD465DF8047B70476C
:1007B000003802400070004019544007003C0240DD
:1007C00080B58EB000AFF860B960C7E90023FB6860
:1007D0003F4A934203D0FB683E4A934201D104232F
:1007E0006CE0BB68FA681A6007F11403F8681946F0
:1007F00001F04CF97B69184601F03EFF02460B46BA
:1008000010461946D7E9002302F01EFA0346002BD2
:1008100001D0012352E0D7E900014FF000024FF070
:10082000000302F007FA0346002B01D0022345E043
:1008300007F114031846D7E9002301F0A7F93B6A32
:10084000002B01D1012339E0D7E9000102F024FA9D
:100850000246BB68DA601CA1D1E90001D7E9002398
:1008600002F0AAF802460B461046194602F014FAA6
:100870000246BB681A613A6ABB685A607A6ABB680A
:100880009A60F86801F016FA7B6A9BB2013B9BB252
:10089000BB850023FB853B6A013B3B630023BB8692
:1008A000002387F8363007F12C03F868194601F069
:1008B000B5FAF868012101F01BFB00231846383710
:1008C000BD4680BDAFF300800000000080842E4153
:1008D000001000400014004080B582B000AF786086
:1008E0000B46FB701346BB707B681B684F4A9342F4
:1008F00007D1FA78BB781046194600F039F903465B
:100900008FE07B681B68B3F1804F07D1FA78BB7822
:100910001046194600F0EAF9034682E07B681B683E
:10092000434A934207D1FA78BB781046194600F043
:10093000A5FA034675E07B681B683E4A934207D1DF
:10094000FA78BB781046194600F070FB034668E061
:100950007B681B68384A934207D1FA78BB78104607
:10096000194600F01FFC03465BE07B681B68334AB6
:10097000934207D1FA78BB781046194600F0CEFCB6
:1009800003464EE07B681B682D4A934207D1FA78F4
:10099000BB781046194600F07BFD034641E07B68BA
:1009A0001B68284A934207D1FA78BB78104619464B
:1009B00000F0D2FD034634E07B681B68224A934274
:1009C00007D1FA78BB781046194600F003FE0346BB
:1009D00027E07B681B681D4A934207D1FA78BB78F1
:1009E0001046194600F034FE03461AE07B681B6887
:1009F000174A934207D1FA78BB781046194600F09F
:100A00008FFE03460DE07B681B68124A934207D1B4
:100A1000FA78BB781046194600F0C0FE034600E0A5
:100A2000042318460837BD4680BD00BF00000140C2
:100A30000004004000080040000C00400004014099
:100A400000400140004401400048014000180040BF
:100A5000001C00400020004080B58AB000AFF86064
:100A60000B467A60FB72FB685B685A1E7B689A4291
:100A700001D2032354E07B68FB617023BB82012316
:100A8000FB8202233B84FB7A032B47D801A252F856
:100A900023F000BFA50A0008C30A0008E10A000805
:100AA000FF0A0008FB681A6807F11403104619468C
:100AB00001F03EFAFB681B681846082101F026FC8D
:100AC0002DE0FB681A6807F114031046194601F07F
:100AD000A9FAFB681B681846082101F033FC1EE0E8
:100AE000FB681A6807F114031046194601F022FB4F
:100AF000FB681B681846082101F042FC0FE0FB6808
:100B00001A6807F114031046194601F099FBFB68B7
:100B10001B681846082101F04FFC00E000BF0023CD
:100B200018462837BD4680BD80B584B000AFF86058
:100B30000B467A60FB72FB681A697B689A4201D2A5
:100B4000032310E0FB685B68013B7A6802FB03F259
:100B5000FB681B69B2FBF3F3FA7AF86811461A4690
:100B6000FFF77AFF034618461037BD4680BD00BF29
:100B700080B586B002AF03460A46FB711346BB71CF
:100B80000623FB73FB79032B00F2A48001A252F829
:100B900023F000BFA50B0008F10B00083D0C000876
:100BA000890C0008BB79002B02D0012B0ED01BE072
:100BB00003230093012301934A484FF480710022DC
:100BC000002300F029FE0023FB7310E003230093B1
:100BD0000123019344484FF400710022002300F0E8
:100BE0001BFE0023FB7302E00623FB7300BF74E0CF
:100BF000BB79002B02D0012B0ED01BE00323009306
:100C00000123019337484FF400710022002300F0C4
:100C100003FE0023FB7310E00323009301230193E1
:100C200031484FF480610022002300F0F5FD0023DD
:100C3000FB7302E00623FB7300BF4EE0BB79002B81
:100C400002D0012B0ED01BE003230093012301935C
:100C500024484FF480610022002300F0DDFD0023D2
:100C6000FB7310E003230093012301931E484FF40C
:100C700000510022002300F0CFFD0023FB7302E0AF
:100C80000623FB7300BF28E0BB79002B02D0012BA9
:100C90000ED01BE0032300930123019311484FF46E
:100CA00000610022002300F0B7FD0023FB7310E079
:100CB00003230093012301930B484FF4804100224A
:100CC000002300F0A9FD0023FB7302E00623FB7361
:100CD00000BF02E00523FB7300BFFB7B1846103703
:100CE000BD4680BD000002400010024080B586B0C5
:100CF00002AF03460A46FB711346BB710623FB7322
:100D0000FB79032B00F2AD8001A252F823F000BF63
:100D1000210D0008870D0008CF0D0008190E0008EE
:100D2000BB79012B10D0022B1BD0002B27D1032322
:100D30000093012301934F4801210022002300F07A
:100D40006BFD0023FB731DE003230093012301933C
:100D5000484820210022002300F05EFD0023FB73A1
:100D600010E0032300930123019342484FF4004114
:100D70000022002300F050FD0023FB7302E0062355
:100D8000FB7300BF70E0BB79002B02D0012B0DD0AC
:100D900019E0032300930123019336480221002226
:100DA000002300F039FD0023FB730FE003230093C1
:100DB00001230193304808210022002300F02CFD7C
:100DC0000023FB7302E00623FB7300BF4CE0BB79FA
:100DD000002B02D0012B0DD01AE003230093012336
:100DE0000193244804210022002300F015FD002374
:100DF000FB7310E003230093012301931E484FF47B
:100E000080610022002300F007FD0023FB7302E055
:100E10000623FB7300BF27E0BB79002B02D0012B18
:100E20000DD01AE0032300930123019311480821F8
:100E30000022002300F0F0FC0023FB7310E00323EA
:100E40000093012301930C484FF40061002200231A
:100E500000F0E2FC0023FB7302E00623FB7300BFFB
:100E600002E00523FB7300BFFB7B18461037BD462D
:100E700080BD00BF000002400004024080B586B083
:100E800002AF03460A46FB711346BB710623FB7390
:100E9000FB79032B00F2BB8001A252F823F000BFC4
:100EA000B10E0008170F00087B0F0008C50F0008DF
:100EB000BB79012B10D0022B1BD0002B27D1032391
:100EC000009302230193564840210022002300F0A2
:100ED000A3FC0023FB731DE0032300930223019373
:100EE000504810210022002300F096FC0023FB73E1
:100EF00010E003230093022301934B484FF48061D9
:100F00000022002300F088FC0023FB7302E006238C
:100F1000FB7300BF7EE0BB79012B10D0022B1BD0EE
:100F2000002B26D103230093022301933C48802108
:100F30000022002300F070FC0023FB731CE003235D
:100F4000009302230193374820210022002300F060
:100F500063FC0023FB730FE0032300930223019340
:100F6000314880210022002300F056FC0023FB734F
:100F700002E00623FB7300BF4CE0BB79002B02D0DC
:100F8000012B0DD01AE0032300930223019325487F
:100F900001210022002300F03FFC0023FB7310E03E
:100FA00003230093022301931F484FF48071002212
:100FB000002300F031FC0023FB7302E00623FB73E7
:100FC00000BF27E0BB79002B02D0012B0DD01AE027
:100FD00003230093022301931248022100220023DD
:100FE00000F01AFC0023FB7310E00323009302239C
:100FF00001930D484FF400710022002300F00CFC17
:101000000023FB7302E00623FB7300BF02E005230D
:10101000FB7300BFFB7B18461037BD4680BD00BF89
:1010200000000240000402400008024080B586B083
:1010300002AF03460A46FB711346BB710623FB73DE
:10104000FB79032B00F2A28001A252F823F000BF2B
:1010500061100008AB100008F510000841110008ED
:10106000BB79002B02D0012B0DD01AE00323009393
:1010700002230193494840210022002300F0CCFBC9
:101080000023FB7310E003230093022301934448E1
:101090004FF480510022002300F0BEFB0023FB73BD
:1010A00002E00623FB7300BF73E0BB79002B02D084
:1010B000012B0DD01AE0032300930223019337483C
:1010C00080210022002300F0A7FB0023FB7310E027
:1010D000032300930223019331484FF4005100226F
:1010E000002300F099FB0023FB7302E00623FB734F
:1010F00000BF4EE0BB79002B02D0012B0ED01BE0CD
:10110000032300930223019324484FF480710022AB
:10111000002300F081FB0023FB7310E00323009306
:10112000022301931E484FF480410022002300F067
:1011300073FB0023FB7302E00623FB7300BF28E070
:10114000BB79002B02D0012B0ED01BE003230093B0
:101150000223019311484FF400710022002300F094
:101160005BFB0023FB7310E0032300930223019336
:101170000B484FF400410022002300F04DFB0023F8
:10118000FB7302E00623FB7300BF02E00523FB7341
:1011900000BFFB7B18461037BD4680BD00040240EF
:1011A000000C024080B586B002AF03460A46FB71D0
:1011B0001346BB710623FB73FB79032B00F29F8060
:1011C00001A252F823F000BFD91100082312000831
:1011D0006D120008B7120008BB79002B02D0012B5A
:1011E0000DD01AE003230093022301934848012104
:1011F0000022002300F010FB0023FB7310E0032308
:1012000000930223019343484FF48061002200239E
:1012100000F002FB0023FB7302E00623FB7300BF18
:1012200070E0BB79002B02D0012B0DD01AE0032314
:10123000009302230193364802210022002300F08C
:10124000EBFA0023FB7310E00323009302230193C6
:1012500030484FF400610022002300F0DDFA002343
:10126000FB7302E00623FB7300BF4BE0BB79002B4E
:1012700002D0012B0DD01AE0032300930223019327
:10128000234804210022002300F0C6FA0023FB7348
:1012900010E003230093022301931E484FF4805172
:1012A0000022002300F0B8FA0023FB7302E00623BB
:1012B000FB7300BF26E0BB79002B02D0012B0DD0C1
:1012C00019E003230093022301931148082100220F
:1012D000002300F0A1FA0023FB730FE00323009327
:1012E000022301930C4801210022002300F094FA0C
:1012F0000023FB7302E00623FB7300BF02E005231B
:10130000FB7300BFFB7B18461037BD4680BD00BF96
:1013100000000240001C02400020024080B586B060
:1013200002AF03460A46FB711346BB710623FB73EB
:10133000FB79032B00F29F8001A252F823F000BF3B
:101340005113000899130008E11300082B1400083A
:10135000BB79002B02D0012B0DD019E003230093A1
:1013600003230193484840210022002300F054FA4F
:101370000023FB730FE003230093032301934348EF
:1013800020210022002300F047FA0023FB7302E033
:101390000623FB7300BF71E0BB79002B02D0012B49
:1013A0000DD019E0032300930323019336488021D5
:1013B0000022002300F030FA0023FB730FE0032328
:1013C000009303230193314840210022002300F0C1
:1013D00023FA0023FB7302E00623FB7300BF4DE0FA
:1013E000BB79002B02D0012B0ED01AE0032300930F
:1013F0000323019324484FF480710022002300F05E
:101400000BFA0023FB730FE00323009303230193E4
:101410001E4880210022002300F0FEF90023FB7308
:1014200002E00623FB7300BF28E0BB79002B02D04B
:10143000012B0ED01BE003230093032301931248DA
:101440004FF400710022002300F0E6F90023FB7343
:1014500010E003230093032301930C484FF48071A1
:101460000022002300F0D8F90023FB7302E00623DA
:10147000FB7300BF02E00523FB7300BFFB7B184634
:101480001037BD4680BD00BF00080240002002406A
:1014900080B586B002AF03460A46FB711346BB71A6
:1014A0000623FB73FB79002B02D0012B24D047E0ED
:1014B000BB79002B02D0012B0DD019E00323009340
:1014C00003230193224804210022002300F0A4F901
:1014D0000023FB730FE003230093032301931D48B4
:1014E00020210022002300F097F90023FB7302E083
:1014F0000623FB7300BF26E0BB79002B02D0012B33
:101500000DD019E003230093032301931048082111
:101510000022002300F080F90023FB730FE0032377
:101520000093032301930B4840210022002300F085
:1015300073F90023FB7302E00623FB7300BF02E094
:101540000523FB7300BFFB7B18461037BD4680BDEB
:10155000000002400010024080B586B002AF034692
:101560000A46FB711346BB710623FB73FB79002B04
:1015700024D1BB79002B02D0012B0ED01AE003231B
:1015800000930323019311484FF48071002200233C
:1015900000F042F90023FB730FE0032300930323C1
:1015A00001930B4840210022002300F035F900236D
:1015B000FB7302E00623FB7300BF02E00523FB730D
:1015C00000BFFB7B18461037BD4680BD00040240BB
:1015D0000014024080B586B002AF03460A46FB7194
:1015E0001346BB710623FB73FB79002B24D1BB7917
:1015F000002B02D0012B0ED01AE00323009303230B
:10160000019311484FF400710022002300F004F907
:101610000023FB730FE003230093032301930B4884
:1016200080210022002300F0F7F80023FB7302E082
:101630000623FB7300BF02E00523FB7300BFFB7BA7
:1016400018461037BD4680BD000402400014024019
:1016500080B586B002AF03460A46FB711346BB71E4
:101660000623FB73FB79002B02D0012B25D04AE027
:10167000BB79002B02D0012B0ED01AE0032300937C
:101680000923019324484FF480410022002300F0F5
:10169000C3F80023FB730FE0032300930923019396
:1016A0001E4840210022002300F0B6F80023FB73FF
:1016B00002E00623FB7300BF28E0BB79002B02D0B9
:1016C000012B0ED01BE00323009309230193124842
:1016D0004FF400410022002300F09EF80023FB732A
:1016E00010E003230093092301930C484FF4007189
:1016F0000022002300F090F80023FB7302E0062391
:10170000FB7300BF02E00523FB7300BFFB7B1846A1
:101710001037BD4680BD00BF00040240001C0240DF
:1017200080B586B002AF03460A46FB711346BB7113
:101730000623FB73FB79002B24D1BB79002B02D04D
:10174000012B0DD01AE003230093092301931148C4
:1017500002210022002300F05FF80023FB7310E059
:1017600003230093092301930B484FF48071002257
:10177000002300F051F80023FB7302E00623FB7303
:1017800000BF02E00523FB7300BFFB7B1846103748
:10179000BD4680BD000002400014024080B586B006
:1017A00002AF03460A46FB711346BB710623FB7367
:1017B000FB79002B24D1BB79002B02D0012B0DD05B
:1017C0001AE003230093092301931148802100228A
:1017D000002300F021F80023FB7310E003230093A3
:1017E000092301930B484FF400710022002300F0FD
:1017F00013F80023FB7302E00623FB7300BF02E033
:101800000523FB7300BFFB7B18461037BD4680BD28
:10181000000002400014024090B587B002AF78602B
:10182000084611461A4603467B800B467B701346DA
:101830003B707B88002B00D140E0786800F042F8D4
:101840000023FB602AE07A88FB6842FA03F303F086
:101850000103002B00D11EE0FB68DB08BB607B6846
:10186000BA68083253F82230FA6802F00702920090
:1018700011460F228A40D243134097F82420F9687A
:1018800001F0070189008A4043EA02017B68BA68D7
:10189000083243F82210FB680133FB60FB680F2B12
:1018A000D1D97A887C783B78009397F820300193DF
:1018B000786811460222234600F07CF81437BD46B2
:1018C00090BD00BF80B483B000AF78607B682F4AC2
:1018D000934205D12E4A2E4B1B6B43F00103136339
:1018E0007B682C4A934205D1294A294B1B6B43F054
:1018F000020313637B68284A934205D1244A244B90
:101900001B6B43F0040313637B68244A934205D1A5
:101910001F4A1F4B1B6B43F0080313637B68204A6D
:10192000934205D11A4A1A4B1B6B43F01003136301
:101930007B681C4A934205D1154A154B1B6B43F03B
:10194000200313637B68184A934205D1104A104B59
:101950001B6B43F0400313637B68144A934205D129
:101960000B4A0B4B1B6B43F0800313637B68104ADD
:10197000934205D1064A064B1B6B43F480731363F5
:101980000C37BD465DF8047B704700BF0000024085
:10199000003802400004024000080240000C0240EF
:1019A000001002400014024000180240001C0240D7
:1019B0000020024080B485B000AF78600846114630
:1019C0001A4603467B800B467B7013463B70002310
:1019D000FB7353E07A88FB7B42FA03F303F00103C5
:1019E000002B00D147E07B681A68FB7B5B0003217A
:1019F00001FA03F3DB431A407978FB7B5B0001FAC1
:101A000003F31A437B681A607B78012B02D07B7842
:101A1000022B1FD17B685B68FA7B012101FA02F27D
:101A2000D24313403978FA7B01FA02F21A437B68F9
:101A30005A607B689A68FB7B5B00032101FA03F321
:101A4000DB431A40397FFB7B5B0001FA03F31A4347
:101A50007B689A607B68DB68FA7B5200032101FA9D
:101A600002F2D2431A40397EFB7B5B0001FA03F39A
:101A70001A437B68DA60FB7B0133FB73FB7B0F2B24
:101A8000A8D91437BD465DF8047B704780B586B091
:101A900000AF7860396007F108031846FEF778FC5C
:101AA0003B684FF6FF729A607B68B3F1804F03D0BA
:101AB0007B68294A934208D17A693B681A603B687F
:101AC0004FF0FF325A60002342E07B68234A934282
:101AD0000FD07B68224A93420BD07B68214A934205
:101AE00007D07B68204A934203D07B681F4A934209
:101AF00008D1FA683B681A603B684FF6FF725A607B
:101B0000002325E07B681A4A934217D07B68194A64
:101B1000934213D07B68184A93420FD07B68174AD0
:101B200093420BD07B68164A934207D07B68154AD4
:101B3000934203D07B68144A934208D17A693B6888
:101B40001A603B684FF6FF725A60002300E00223E0
:101B500018461837BD4680BD000C0040000001400B
:101B600000040140004001400044014000480140A1
:101B70000004004000080040001000400014004035
:101B800000180040001C00400020004080B584B0D8
:101B900000AFF860C7E90023FB681B68184600F037
:101BA0006BFD02460B4610461946D7E9002301F0AB
:101BB0004BF80346002B0AD0FB6800221A61FB6831
:101BC0000022DA60FB6800225A6103236DE0D7E946
:101BD00000014FF000024FF0000301F02BF8034624
:101BE000002B0AD0FB6800221A61FB680022DA6031
:101BF000FB6800225A61042357E0FB685B68B3F579
:101C0000803F04D2FB685B685A1CFB685A60FB6823
:101C100000221A61FB681A68FB681B690133B2FB7A
:101C2000F3F2FB68DA60FB68DB68184600F024FD1D
:101C300002460B4610461946D7E9002300F0BCFEC9
:101C400002460B461046194601F026F80246FB688C
:101C5000DA60FB681B695A1CFB681A61FB68DA686A
:101C6000FB685B689A4206D9FB681A69FB689B6847
:101C700001339A42CED9FB681A69FB689B6801332D
:101C80009A420AD9FB6800221A61FB680022DA60D6
:101C9000FB6800225A61042307E0D7E9000100F045
:101CA000FBFF0246FB685A61002318461037BD4609
:101CB00080BD00BF80B483B000AF78607B68494AC4
:101CC000934205D1484A484B5B6C43F0010353648F
:101CD0007B68B3F1804F05D1434A434B1B6C43F003
:101CE000010313647B68414A934205D13E4A3E4B4F
:101CF0001B6C43F0020313647B683D4A934205D199
:101D0000394A394B1B6C43F0040313647B68394A2E
:101D1000934205D1344A344B1B6C43F008031364DF
:101D20007B68354A934205D12F4A2F4B1B6C43F0F9
:101D3000100313647B68314A934205D12A4A2A4B27
:101D40001B6C43F0200313647B682D4A934205D13A
:101D5000254A254B5B6C43F0020353647B68294A98
:101D6000934205D1204A204B5B6C43F4803353648B
:101D70007B68254A934205D11B4A1B4B5B6C43F49D
:101D8000003353647B68214A934205D1164A164BAF
:101D90005B6C43F4802353647B681D4A934205D1F6
:101DA000114A114B1B6C43F0400313647B68194AC2
:101DB000934205D10C4A0C4B1B6C43F08003136417
:101DC0007B68154A934205D1074A074B1B6C43F4C5
:101DD00080731364002318460C37BD465DF8047BFE
:101DE000704700BF0000014000380240000400407E
:101DF00000080040000C00400010004000140040AB
:101E000000040140004001400044014000480140FE
:101E100000180040001C00400020004080B485B045
:101E200000AF786039600023FB817B681B88FB81F1
:101E30007B68284A934213D07B68274A93420FD08D
:101E40007B68B3F1804F0BD07B68244A934207D064
:101E50007B68234A934203D07B68224A934208D18D
:101E6000FB8923F07003FB813B685A88FB8913438D
:101E7000FB817B681C4A93420CD07B681B4A9342CF
:101E800008D0FB8923F44073FB813B681A89FB89E6
:101E90001343FB817B68FA891A803B685A687B6828
:101EA000DA623B681A887B681A857B68094A934224
:101EB00003D07B68084A934204D13B689B7A9AB26C
:101EC0007B681A867B6801229A821437BD465DF8CA
:101ED000047B704700000140000401400004004002
:101EE00000080040000C00400010004000140040BA
:101EF00080B483B000AF78600B46FB70FB78002B9A
:101F000008D07B681B889BB243F001039AB27B68C0
:101F10001A8007E07B681B889BB223F001039AB20A
:101F20007B681A800C37BD465DF8047B704700BFA4
:101F300080B485B000AF7860396000237B810023D6
:101F4000FB810023BB817B681B8C9BB223F00103C8
:101F50009AB27B681A847B681B8CFB817B689B88A8
:101F6000BB817B681B8B7B817B8923F070037B812A
:101F70007B8923F003037B813B681A887B891343A9
:101F80007B81FB8923F00203FB813B689A89FB89F3
:101F90001343FB813B685A88FB891343FB817B68B1
:101FA0001E4A934203D07B681D4A934223D1FB898A
:101FB00023F00803FB813B68DA89FB891343FB812B
:101FC000FB8923F00403FB813B689A88FB89134358
:101FD000FB81BB8923F48073BB81BB8923F400732D
:101FE000BB813B681A8ABB891343BB813B685A8A11
:101FF000BB891343BB817B68BA899A807B687A89E5
:102000001A833B689A687B685A637B68FA891A84EA
:102010001437BD465DF8047B704700BF00000140E7
:102020000004014080B485B000AF786039600023BF
:102030007B810023FB810023BB817B681B8C9BB2CF
:1020400023F010039AB27B681A847B681B8CFB8197
:102050007B689B88BB817B681B8B7B817B8923F49E
:10206000E0437B817B8923F440737B813B681B8841
:102070001B029AB27B8913437B81FB8923F02003E7
:10208000FB813B689B891B019AB2FB891343FB814F
:102090003B685B881B019AB2FB891343FB817B6819
:1020A000224A934203D07B68214A93422BD1FB8979
:1020B00023F08003FB813B68DB891B019AB2FB891B
:1020C0001343FB81FB8923F04003FB813B689B8822
:1020D0001B019AB2FB891343FB81BB8923F4806304
:1020E000BB81BB8923F40063BB813B681B8A9B00D7
:1020F0009AB2BB891343BB813B685B8A9B009AB24F
:10210000BB891343BB817B68BA899A807B687A89D3
:102110001A833B689A687B689A637B68FA891A8499
:102120001437BD465DF8047B704700BF00000140D6
:102130000004014080B485B000AF786039600023AE
:102140007B810023FB810023BB817B681B8C9BB2BE
:1021500023F480739AB27B681A847B681B8CFB81A2
:102160007B689B88BB817B689B8B7B817B8923F011
:1021700070037B817B8923F003037B813B681A8892
:102180007B8913437B81FB8923F40073FB813B68CC
:102190009B891B029AB2FB891343FB813B685B88D6
:1021A0001B029AB2FB891343FB817B68224A93424C
:1021B00003D07B68214A93422BD1FB8923F400632F
:1021C000FB813B68DB891B029AB2FB891343FB81CD
:1021D000FB8923F48063FB813B689B881B029AB2D6
:1021E000FB891343FB81BB8923F48053BB81BB89EB
:1021F00023F40053BB813B681B8A1B019AB2BB8945
:102200001343BB813B685B8A1B019AB2BB891343B2
:10221000BB817B68BA899A807B687A899A833B689C
:102220009A687B68DA637B68FA891A841437BD463A
:102230005DF8047B704700BF0000014000040140CE
:1022400080B485B000AF786039600023BB81002383
:102250007B810023FB817B681B8C9BB223F4805322
:102260009AB27B681A847B681B8C7B817B689B8815
:10227000FB817B689B8BBB81BB8923F4E043BB81E3
:10228000BB8923F44073BB813B681B881B029AB255
:10229000BB891343BB817B8923F400537B813B685B
:1022A0009B891B039AB27B8913437B813B685B88C4
:1022B0001B039AB27B8913437B817B68114A93424B
:1022C00003D07B68104A93420AD1FB8923F48043F0
:1022D000FB813B681B8A9B019AB2FB891343FB81FC
:1022E0007B68FA899A807B68BA899A833B689A6886
:1022F0007B681A647B687A891A841437BD465DF856
:10230000047B7047000001400004014080B485B0A8
:1023100000AF78600B467B800023FB817B681B8BC2
:10232000FB81FB8923F00803FB81FA897B88134337
:10233000FB817B68FA891A831437BD465DF8047BFC
:10234000704700BF80B485B000AF78600B467B80DB
:102350000023FB817B681B8BFB81FB8923F40063DB
:10236000FB817B881B029AB2FB891343FB817B684C
:10237000FA891A831437BD465DF8047B704700BFA5
:1023800080B485B000AF78600B467B800023FB8172
:102390007B689B8BFB81FB8923F00803FB81FA8917
:1023A0007B881343FB817B68FA899A831437BD4687
:1023B0005DF8047B704700BF80B485B000AF7860E3
:1023C0000B467B800023FB817B689B8BFB81FB8919
:1023D00023F40063FB817B881B029AB2FB891343C1
:1023E000FB817B68FA899A831437BD465DF8047BCC
:1023F000704700BF81F0004102E000BF83F000435E
:1024000030B54FEA41044FEA430594EA050F08BF8F
:1024100090EA020F1FBF54EA000C55EA020C7FEA53
:10242000645C7FEA655C00F0E2804FEA5454D4EBD0
:102430005555B8BF6D420CDD2C4480EA020281EA9A
:10244000030382EA000083EA010180EA020281EAD2
:102450000303362D88BF30BD11F0004F4FEA013124
:102460004FF4801C4CEA113102D0404261EB410133
:1024700013F0004F4FEA03334CEA133302D05242B9
:1024800063EB430394EA050F00F0A780A4F1010475
:10249000D5F1200E0DDB02FA0EFC22FA05F28018AF
:1024A00041F1000103FA0EF2801843FA05F3594195
:1024B0000EE0A5F120050EF1200E012A03FA0EFC14
:1024C00028BF4CF0020C43FA05F3C01851EBE3713E
:1024D00001F0004507D54FF0000EDCF1000C7EEB5B
:1024E00000006EEB0101B1F5801F1BD3B1F5001F99
:1024F0000CD349085FEA30004FEA3C0C04F10104B8
:102500004FEA445212F5800F80F09A80BCF1004FE0
:1025100008BF5FEA500C50F1000041EB045141EA62
:10252000050130BD5FEA4C0C404141EB010111F463
:10253000801FA4F10104E9D191F0000F04BF01460E
:102540000020B1FA81F308BF2033A3F10B03B3F1EC
:1025500020020CDA0C3208DD02F1140CC2F10C027C
:1025600001FA0CF021FA02F10CE002F11402D8BFDA
:10257000C2F1200C01FA02F120FA0CFCDCBF41EAA6
:102580000C019040E41AA2BF01EB0451294330BD75
:102590006FEA04041F3C1CDA0C340EDC04F1140452
:1025A000C4F1200220FA04F001FA02F340EA030029
:1025B00021FA04F345EA030130BDC4F10C04C4F16F
:1025C000200220FA02F001FA04F340EA030029464F
:1025D00030BD21FA04F0294630BD94F0000F83F499
:1025E000801306BF81F480110134013D4EE77FEA7C
:1025F000645C18BF7FEA655C29D094EA050F08BFC8
:1026000090EA020F05D054EA000C04BF19461046A8
:1026100030BD91EA030F1EBF0021002030BD5FEAEC
:10262000545C05D14000494128BF41F0004130BD14
:1026300014F580043CBF01F5801130BD01F0004568
:1026400045F0FE4141F470014FF0000030BD7FEADB
:10265000645C1ABF194610467FEA655C1CBF0B46D6
:10266000024650EA013406BF52EA033591EA030FED
:1026700041F4002130BD00BF90F0000F04BF0021E5
:10268000704730B54FF4806404F132044FF0000518
:102690004FF0000150E700BF90F0000F04BF002191
:1026A000704730B54FF4806404F1320410F00045F7
:1026B00048BF40424FF000013EE700BF42004FEAF2
:1026C000E2014FEA31014FEA02701FBF12F07F436F
:1026D00093F07F4F81F06051704792F0000F14BF6C
:1026E00093F07F4F704730B54FF4607401F00045B0
:1026F00021F0004120E700BF50EA010208BF704707
:1027000030B54FF000050AE050EA010208BF7047FB
:1027100030B511F0004502D5404261EB41014FF464
:10272000806404F132045FEA915C3FF4DCAE4FF068
:1027300003025FEADC0C18BF03325FEADC0C18BF4F
:10274000033202EBDC02C2F1200300FA03FC20FAA0
:1027500002F001FA03FE40EA0E0021FA02F11444ED
:10276000C1E600BF70B54FF0FF0C4CF4E06C1CEA02
:1027700011541DBF1CEA135594EA0C0F95EA0C0F77
:1027800000F0DEF82C4481EA030621EA4C5123EAEA
:102790004C5350EA013518BF52EA033541F4801119
:1027A00043F4801338D0A0FB02CE4FF00005E1FBCC
:1027B00002E506F00042E0FB03E54FF00006E1FB16
:1027C00003569CF0000F18BF4EF0010EA4F1FF0459
:1027D000B6F5007F64F5407404D25FEA4E0E6D4199
:1027E00046EB060642EAC62141EA55514FEAC520AA
:1027F00040EA5E504FEACE2EB4F1FD0C88BFBCF526
:10280000E06F1ED8BEF1004F08BF5FEA500E50F1D6
:10281000000041EB045170BD06F0004646EA01019C
:1028200040EA020081EA0301B4EB5C04C2BFD4EBCE
:102830000C0541EA045170BD41F480114FF0000EC7
:10284000013C00F3AB8014F1360FDEBF002001F035
:10285000004170BDC4F10004203C35DA0C341BDCAF
:1028600004F11404C4F1200500FA05F320FA04F081
:1028700001FA05F240EA020001F0004221F00041B5
:1028800010EBD37021FA04F642EB06015EEA430E28
:1028900008BF20EAD37070BDC4F10C04C4F1200558
:1028A00000FA04F320FA05F001FA04F240EA02000B
:1028B00001F0004110EBD37041F100015EEA430EDC
:1028C00008BF20EAD37070BDC4F1200500FA05F2FC
:1028D0004EEA020E20FA04F301FA05F243EA02037B
:1028E00021FA04F001F0004121FA04F220EA02008A
:1028F00000EBD3705EEA430E08BF20EAD37070BDD0
:1029000094F0000F0FD101F00046400041EB0101AF
:1029100011F4801F08BF013CF7D041EA060195F091
:10292000000F18BF704703F00046520043EB03034B
:1029300013F4801F08BF013DF7D043EA0603704738
:1029400094EA0C0F0CEA135518BF95EA0C0F0CD043
:1029500050EA410618BF52EA4306D1D181EA030189
:1029600001F000414FF0000070BD50EA410606BF83
:102970001046194652EA430619D094EA0C0F02D1C8
:1029800050EA013613D195EA0C0F05D152EA03360D
:102990001CBF104619460AD181EA030101F000412B
:1029A00041F0FE4141F470014FF0000070BD41F074
:1029B000FE4141F4780170BD70B54FF0FF0C4CF44E
:1029C000E06C1CEA11541DBF1CEA135594EA0C0F6D
:1029D00095EA0C0F00F0A7F8A4EB050481EA030EBA
:1029E00052EA03354FEA013100F088804FEA0333A1
:1029F0004FF0805545EA131343EA12634FEA02226F
:102A000045EA111545EA10654FEA00260EF000412F
:102A10009D4208BF964244F1FD0404F5407402D281
:102A20005B084FEA3202B61A65EB03055B084FEA12
:102A300032024FF480104FF4002CB6EB020E75EB0F
:102A4000030E22BFB61A754640EA0C005B084FEA37
:102A50003202B6EB020E75EB030E22BFB61A7546B4
:102A600040EA5C005B084FEA3202B6EB020E75EBFF
:102A7000030E22BFB61A754640EA9C005B084FEA77
:102A80003202B6EB020E75EB030E22BFB61A754684
:102A900040EADC0055EA060E18D04FEA051545EA73
:102AA00016754FEA06164FEAC30343EA52734FEA1C
:102AB000C2025FEA1C1CC0D111F4801F0BD141EA95
:102AC00000014FF000004FF0004CB6E711F4801FFA
:102AD00004BF01430020B4F1FD0C88BFBCF5E06FDA
:102AE0003FF6AFAEB5EB030C04BFB6EB020C5FEAEA
:102AF000500C50F1000041EB045170BD0EF0004E3F
:102B00004EEA113114EB5C04C2BFD4EB0C0541EA70
:102B1000045170BD41F480114FF0000E013C90E66D
:102B200045EA060E8DE60CEA135594EA0C0F08BF31
:102B300095EA0C0F3FF43BAF94EA0C0F0AD150EA30
:102B400001347FF434AF95EA0C0F7FF425AF1046C3
:102B500019462CE795EA0C0F06D152EA03353FF4EB
:102B6000FDAE1046194622E750EA410618BF52EA68
:102B700043067FF4C5AE50EA41047FF40DAF52EA3C
:102B800043057FF4EBAE12E74FF0FF3C06E000BFD9
:102B90004FF0010C02E000BF4FF0010C4DF804CDE6
:102BA0004FEA410C7FEA6C5C4FEA430C18BF7FEAA6
:102BB0006C5C1BD001B050EA410C0CBF52EA430CD4
:102BC00091EA030F02BF90EA020F0020704710F154
:102BD000000F91EA030F58BF994208BF90422CBFE3
:102BE000D8176FEAE37040F0010070474FEA410CDC
:102BF0007FEA6C5C02D150EA013C07D14FEA430CFA
:102C00007FEA6C5CD6D152EA033CD3D05DF8040B6A
:102C1000704700BF8446104662468C46194663469C
:102C200000E000BF01B5FFF7B7FF002848BF10F173
:102C3000000F01BD4DF808EDFFF7F4FF0CBF0120B8
:102C400000205DF808FB00BF4DF808EDFFF7EAFF34
:102C500034BF012000205DF808FB00BF4DF808EDEF
:102C6000FFF7E0FF94BF012000205DF808FB00BFE4
:102C70004DF808EDFFF7CEFF94BF012000205DF86E
:102C800008FB00BF4DF808EDFFF7C4FF34BF01207B
:102C900000205DF808FB00BF4A0011D212F50012B7
:102CA00011D20DD56FF47873B3EB62520ED44FEAA4
:102CB000C12343F0004343EA505323FA02F0704724
:102CC0004FF00000704750EA013002D14FF0FF3062
:082CD00070474FF0000070474F
:102CD80000000000010203040102030406070809BA
:0400000508000000EF
:00000001FF
